{
  "contractName": "Bank",
  "abi": [
    {
      "inputs": [],
      "stateMutability": "nonpayable",
      "type": "constructor"
    },
    {
      "inputs": [],
      "name": "bankName",
      "outputs": [
        {
          "internalType": "string",
          "name": "",
          "type": "string"
        }
      ],
      "stateMutability": "view",
      "type": "function"
    },
    {
      "inputs": [],
      "name": "bankOwner",
      "outputs": [
        {
          "internalType": "address",
          "name": "",
          "type": "address"
        }
      ],
      "stateMutability": "view",
      "type": "function"
    },
    {
      "inputs": [
        {
          "internalType": "address",
          "name": "",
          "type": "address"
        }
      ],
      "name": "customerBalance",
      "outputs": [
        {
          "internalType": "uint256",
          "name": "",
          "type": "uint256"
        }
      ],
      "stateMutability": "view",
      "type": "function"
    },
    {
      "inputs": [],
      "name": "depositMoney",
      "outputs": [],
      "stateMutability": "payable",
      "type": "function"
    },
    {
      "inputs": [
        {
          "internalType": "string",
          "name": "_name",
          "type": "string"
        }
      ],
      "name": "setBankName",
      "outputs": [],
      "stateMutability": "nonpayable",
      "type": "function"
    },
    {
      "inputs": [
        {
          "internalType": "address payable",
          "name": "_to",
          "type": "address"
        },
        {
          "internalType": "uint256",
          "name": "_total",
          "type": "uint256"
        }
      ],
      "name": "withdrawMoney",
      "outputs": [],
      "stateMutability": "nonpayable",
      "type": "function"
    },
    {
      "inputs": [],
      "name": "getCustomerBalance",
      "outputs": [
        {
          "internalType": "uint256",
          "name": "",
          "type": "uint256"
        }
      ],
      "stateMutability": "view",
      "type": "function"
    },
    {
      "inputs": [],
      "name": "getBankBalance",
      "outputs": [
        {
          "internalType": "uint256",
          "name": "",
          "type": "uint256"
        }
      ],
      "stateMutability": "view",
      "type": "function"
    }
  ],
  "bytecode": "0x608060405234801561001057600080fd5b50336000806101000a81548173ffffffffffffffffffffffffffffffffffffffff021916908373ffffffffffffffffffffffffffffffffffffffff160217905550610ded806100606000396000f3fe60806040526004361061007b5760003560e01c80637b83b50b1161004e5780637b83b50b1461011b578063a853409a14610146578063e147aaa714610171578063f274c8971461019c5761007b565b806316c05aa21461008057806327d358011461008a57806337ebe47b146100b557806370142690146100f2575b600080fd5b6100886101c5565b005b34801561009657600080fd5b5061009f610260565b6040516100ac919061070f565b60405180910390f35b3480156100c157600080fd5b506100dc60048036038101906100d791906107a3565b6102ee565b6040516100e991906107e9565b60405180910390f35b3480156100fe57600080fd5b5061011960048036038101906101149190610939565b610306565b005b34801561012757600080fd5b506101306103ae565b60405161013d91906107e9565b60405180910390f35b34801561015257600080fd5b5061015b610445565b60405161016891906107e9565b60405180910390f35b34801561017d57600080fd5b5061018661048c565b6040516101939190610991565b60405180910390f35b3480156101a857600080fd5b506101c360048036038101906101be9190610a16565b6104b0565b005b60003403610208576040517f08c379a00000000000000000000000000000000000000000000000000000000081526004016101ff90610ac8565b60405180910390fd5b34600260003373ffffffffffffffffffffffffffffffffffffffff1673ffffffffffffffffffffffffffffffffffffffff16815260200190815260200160002060008282546102579190610b17565b92505081905550565b6001805461026d90610b9c565b80601f016020809104026020016040519081016040528092919081815260200182805461029990610b9c565b80156102e65780601f106102bb576101008083540402835291602001916102e6565b820191906000526020600020905b8154815290600101906020018083116102c957829003601f168201915b505050505081565b60026020528060005260406000206000915090505481565b60008054906101000a900473ffffffffffffffffffffffffffffffffffffffff1673ffffffffffffffffffffffffffffffffffffffff163373ffffffffffffffffffffffffffffffffffffffff1614610394576040517f08c379a000000000000000000000000000000000000000000000000000000000815260040161038b90610c3f565b60405180910390fd5b80600190805190602001906103aa9291906105d3565b5050565b60008060009054906101000a900473ffffffffffffffffffffffffffffffffffffffff1673ffffffffffffffffffffffffffffffffffffffff163373ffffffffffffffffffffffffffffffffffffffff161461043f576040517f08c379a000000000000000000000000000000000000000000000000000000000815260040161043690610cd1565b60405180910390fd5b47905090565b6000600260003373ffffffffffffffffffffffffffffffffffffffff1673ffffffffffffffffffffffffffffffffffffffff16815260200190815260200160002054905090565b60008054906101000a900473ffffffffffffffffffffffffffffffffffffffff1681565b600260003373ffffffffffffffffffffffffffffffffffffffff1673ffffffffffffffffffffffffffffffffffffffff16815260200190815260200160002054811115610532576040517f08c379a000000000000000000000000000000000000000000000000000000000815260040161052990610d63565b60405180910390fd5b80600260003373ffffffffffffffffffffffffffffffffffffffff1673ffffffffffffffffffffffffffffffffffffffff16815260200190815260200160002060008282546105819190610d83565b925050819055508173ffffffffffffffffffffffffffffffffffffffff166108fc829081150290604051600060405180830381858888f193505050501580156105ce573d6000803e3d6000fd5b505050565b8280546105df90610b9c565b90600052602060002090601f0160209004810192826106015760008555610648565b82601f1061061a57805160ff1916838001178555610648565b82800160010185558215610648579182015b8281111561064757825182559160200191906001019061062c565b5b5090506106559190610659565b5090565b5b8082111561067257600081600090555060010161065a565b5090565b600081519050919050565b600082825260208201905092915050565b60005b838110156106b0578082015181840152602081019050610695565b838111156106bf576000848401525b50505050565b6000601f19601f8301169050919050565b60006106e182610676565b6106eb8185610681565b93506106fb818560208601610692565b610704816106c5565b840191505092915050565b6000602082019050818103600083015261072981846106d6565b905092915050565b6000604051905090565b600080fd5b600080fd5b600073ffffffffffffffffffffffffffffffffffffffff82169050919050565b600061077082610745565b9050919050565b61078081610765565b811461078b57600080fd5b50565b60008135905061079d81610777565b92915050565b6000602082840312156107b9576107b861073b565b5b60006107c78482850161078e565b91505092915050565b6000819050919050565b6107e3816107d0565b82525050565b60006020820190506107fe60008301846107da565b92915050565b600080fd5b600080fd5b7f4e487b7100000000000000000000000000000000000000000000000000000000600052604160045260246000fd5b610846826106c5565b810181811067ffffffffffffffff821117156108655761086461080e565b5b80604052505050565b6000610878610731565b9050610884828261083d565b919050565b600067ffffffffffffffff8211156108a4576108a361080e565b5b6108ad826106c5565b9050602081019050919050565b82818337600083830152505050565b60006108dc6108d784610889565b61086e565b9050828152602081018484840111156108f8576108f7610809565b5b6109038482856108ba565b509392505050565b600082601f8301126109205761091f610804565b5b81356109308482602086016108c9565b91505092915050565b60006020828403121561094f5761094e61073b565b5b600082013567ffffffffffffffff81111561096d5761096c610740565b5b6109798482850161090b565b91505092915050565b61098b81610765565b82525050565b60006020820190506109a66000830184610982565b92915050565b60006109b782610745565b9050919050565b6109c7816109ac565b81146109d257600080fd5b50565b6000813590506109e4816109be565b92915050565b6109f3816107d0565b81146109fe57600080fd5b50565b600081359050610a10816109ea565b92915050565b60008060408385031215610a2d57610a2c61073b565b5b6000610a3b858286016109d5565b9250506020610a4c85828601610a01565b9150509250929050565b7f596f75206e65656420746f206465706f73697420736f6d6520616d6f756e742060008201527f6f66206d6f6e6579210000000000000000000000000000000000000000000000602082015250565b6000610ab2602983610681565b9150610abd82610a56565b604082019050919050565b60006020820190508181036000830152610ae181610aa5565b9050919050565b7f4e487b7100000000000000000000000000000000000000000000000000000000600052601160045260246000fd5b6000610b22826107d0565b9150610b2d836107d0565b9250827fffffffffffffffffffffffffffffffffffffffffffffffffffffffffffffffff03821115610b6257610b61610ae8565b5b828201905092915050565b7f4e487b7100000000000000000000000000000000000000000000000000000000600052602260045260246000fd5b60006002820490506001821680610bb457607f821691505b602082108103610bc757610bc6610b6d565b5b50919050565b7f596f75206d75737420626520746865206f776e657220746f207365742074686560008201527f206e616d65206f66207468652062616e6b000000000000000000000000000000602082015250565b6000610c29603183610681565b9150610c3482610bcd565b604082019050919050565b60006020820190508181036000830152610c5881610c1c565b9050919050565b7f596f75206d75737420626520746865206f776e6572206f66207468652062616e60008201527f6b20746f2073656520616c6c2062616c616e6365732e00000000000000000000602082015250565b6000610cbb603683610681565b9150610cc682610c5f565b604082019050919050565b60006020820190508181036000830152610cea81610cae565b9050919050565b7f596f75206861766520696e7375666669656e742066756e647320746f2077697460008201527f6864726177000000000000000000000000000000000000000000000000000000602082015250565b6000610d4d602583610681565b9150610d5882610cf1565b604082019050919050565b60006020820190508181036000830152610d7c81610d40565b9050919050565b6000610d8e826107d0565b9150610d99836107d0565b925082821015610dac57610dab610ae8565b5b82820390509291505056fea26469706673582212201c70a17c3d2a7b3a5c877f2105eb952eeae982f06a83b87109e84d5fe7f3238c64736f6c634300080e0033",
  "immutableReferences": {},
  "source": "// SPDX-License-Identifier: GPL-3.0\r\n\r\npragma solidity ^0.8.0;\r\n\r\ncontract Bank {\r\n    address public bankOwner;\r\n    string public bankName;\r\n    mapping(address => uint256) public customerBalance;\r\n\r\n    constructor() {\r\n        bankOwner = msg.sender;\r\n    }\r\n\r\n    function depositMoney() public payable {\r\n        require(msg.value != 0, \"You need to deposit some amount of money!\");\r\n        customerBalance[msg.sender] += msg.value;\r\n    }\r\n\r\n    function setBankName(string memory _name) external {\r\n        require(\r\n            msg.sender == bankOwner,\r\n            \"You must be the owner to set the name of the bank\"\r\n        );\r\n        bankName = _name;\r\n    }\r\n\r\n    function withdrawMoney(address payable _to, uint256 _total) public {\r\n        require(\r\n            _total <= customerBalance[msg.sender],\r\n            \"You have insuffient funds to withdraw\"\r\n        );\r\n\r\n        customerBalance[msg.sender] -= _total;\r\n        _to.transfer(_total);\r\n    }\r\n\r\n    function getCustomerBalance() external view returns (uint256) {\r\n        return customerBalance[msg.sender];\r\n    }\r\n\r\n    function getBankBalance() public view returns (uint256) {\r\n        require(\r\n            msg.sender == bankOwner,\r\n            \"You must be the owner of the bank to see all balances.\"\r\n        );\r\n        return address(this).balance;\r\n    }\r\n}\r\n",
  "sourcePath": "D:\\daaps\\app_dev_cadena\\contracts\\Bank.sol",
  "compiler": {
    "name": "solc",
    "version": "0.8.14+commit.80d49f37.Emscripten.clang"
  },
  "schemaVersion": "3.4.7",
  "updatedAt": "2022-07-21T03:23:07.852Z",
  "devdoc": {
    "kind": "dev",
    "methods": {},
    "version": 1
  },
  "userdoc": {
    "kind": "user",
    "methods": {},
    "version": 1
  }
}